:100000000C944B000C9458020C9458020C94580217
:100010000C9458020C9458020C9458020C9405024B
:100020000C9458020C9458020C9458020C945802E8
:100030000C9458020C9458020C9458020C945802D8
:100040000C9458020C9458020C9458020C945802C8
:100050000C9474010C9458020C9458020C9458029D
:100060000C9475000C9458020C9458020C9458028D
:100070000C9458020C9458020C9458020C94580298
:100080000C9458020C9458020C9458020C94580288
:1000900030003006800011241FBECFEFCDBFDFE35C
:1000A000DEBFE0E9F0E040E017C0B591A5913591E1
:1000B0002591059107FD0CC095918591EF01F92FD0
:1000C000E82F05900D92A217B307D9F7FE0104C0DF
:1000D0001D92A217B307E1F7E539F40731F70E9443
:0A00E00035020C944302F894FFCFA0
:1000EA001F920F920FB60F9211242F933F934F93A3
:1000FA005F936F937F938F939F93AF93BF93EF9386
:10010A00FF938091490480FF10C08091480461E008
:10011A000E944E02882319F081E080930130E0E4C6
:10012A00F4E081858170818713C08091490481FF41
:10013A000FC08091480462E00E944E02882319F0A1
:10014A0081E080930030E0E4F4E081858270818769
:10015A00FF91EF91BF91AF919F918F917F916F9195
:10016A005F914F913F912F910F900FBE0F901F906B
:02017A001895D6
:10017C008CEF8093060480EA8093660480910530AE
:10018C0080FF03C080E8809365048091053081FF77
:10019C0003C080E2809365048091053082FF03C028
:1001AC0080E8809305048091053083FF03C080E4D0
:1001BC00809305048091053084FF03C080E2809316
:1001CC0005048091053085FF03C080E18093050410
:1001DC008091053086FF03C088E0809305048091F0
:0E01EC00053088231CF484E0809305040895F8
:1001FA0093E0E0E6F4E01DC0848182608483AEE38C
:10020A00B1E01197F1F700C0000084818D7F8483EB
:10021A00AEE3B1E01197F1F700C0000021503109B7
:10022A0059F7ABE4BDE11197F1F700C00000915016
:10023A0019F02AEF30E0E0CF26E336E0E0E6F4E01A
:10024A0084818260848381E991E00197F1F700C09B
:10025A0084818D7F8483A1E9B1E01197F1F700C011
:08026A002150310969F70895E4
:1002720080910430882391F080910330811103C072
:100282000E94270202C00E94ED0110920430909158
:10029200033081E0911180E080930330809101303E
:1002A200882371F0809105308F3F41F080910530B5
:1002B2008F5F8093053081E080930230109201308D
:1002C20080910030882371F0809105308B3F40F49B
:1002D200809105308B5F8093053081E080930230FE
:0602E200109200300895A7
:1002E8001F920F920FB60F9211242F933F934F93A3
:1002F8005F936F937F938F939F93AF93BF93EF9386
:10030800FF938091690486FF0FC08091480461E0E3
:100318000E944E02882319F081E080930430E0E6C1
:10032800F4E0818580748187FF91EF91BF91AF914F
:100338009F918F917F916F915F914F913F912F91F5
:0A0348000F900FBE0F901F90189544
:10035200E0E0F4E080818C6F8083E0E6F4E080816D
:10036200826A8083A0E4B4E08C918C7F8C9380813C
:100372008F7B808350968C9150978A6050968C9395
:10038200509751968C9151978A6051968C93868999
:060392008A60868B0895CD
:1003980080910330882351F080910530882331F013
:1003A800809105308150809305300EC080910330D4
:1003B800882351F080910530811106C010920330D6
:1003C8000E94FD000E94ED010E94BE0010920230C2
:0203D800089586
:1003DA00E0E0FAE080818E7F808385818860858372
:1003EA00E0E4F4E08089887F8260808B8189887F5D
:1003FA008260818B1092053081E0809302300895EB
:10040A008F938FB78F93EF93FF9381E0809302309E
:10041A00E0E0FAE0838581708387FF91EF918F9105
:06042A008FBF8F911895B1
:10043000E0E0FAE081E08287118281858E7F81870A
:0E04400082E79BEC86A397A38AE08083089551
:10044E00E0E4F4E080898460808B81898460818B14
:0C045E00E0E0FAE0808181608083089576
:10046A000E94A9010E94180278940E943901809181
:0C047A0002308823D1F30E94CC01F7CFA0
:10048600EC010E945D020E945C02CE010E945E02A7
:06049600CE010E945A0293
:10049C00862339F087E893E10197F1F700C000005B
:0404AC0081E008954E
:0404B0000C940000A8
:0404B4000E9473002F
:0204B8000895A5
:0204BA000895A3
:0204BC000895A1
:00000001FF
